:020000040000fa
:080000000002040000000000f2
:020000040000fa
:04000800c80200002a
:020000040000fa
:04000c00c802000026
:020000040000fa
:04001000c802000022
:020000040000fa
:04001400c80200001e
:020000040000fa
:04001800c80200001a
:020000040000fa
:04001c00c802000016
:020000040000fa
:04002000c802000012
:020000040000fa
:04002400c80200000e
:020000040000fa
:04002800c80200000a
:020000040000fa
:04002c00c802000006
:020000040000fa
:04003000c802000002
:020000040000fa
:04003400c8020000fe
:020000040000fa
:04003800c8020000fa
:020000040000fa
:04003c00c8020000f6
:020000040000fa
:04004000c8020000f2
:020000040000fa
:04004400c8020000ee
:020000040000fa
:04004800c8020000ea
:020000040000fa
:04004c00c8020000e6
:020000040000fa
:04005000c8020000e2
:020000040000fa
:04005400c8020000de
:020000040000fa
:04005800c8020000da
:020000040000fa
:04005c00c8020000d6
:020000040000fa
:04006000c8020000d2
:020000040000fa
:04006400c8020000ce
:020000040000fa
:04006800c8020000ca
:020000040000fa
:04006c00c8020000c6
:020000040000fa
:04007000c8020000c2
:020000040000fa
:04007400c8020000be
:020000040000fa
:04007800c8020000ba
:020000040000fa
:04007c00c8020000b6
:020000040000fa
:04008000c8020000b2
:020000040000fa
:04008400c8020000ae
:020000040000fa
:04008800c8020000aa
:020000040000fa
:04008c00c8020000a6
:020000040000fa
:04009000c8020000a2
:020000040000fa
:04009400c80200009e
:020000040000fa
:04009800c80200009a
:020000040000fa
:04009c00c802000096
:020000040000fa
:0400a000c802000092
:020000040000fa
:0400a400c80200008e
:020000040000fa
:0400a800c80200008a
:020000040000fa
:0400ac00c802000086
:020000040000fa
:0400b000c802000082
:020000040000fa
:0400b400c80200007e
:020000040000fa
:0400b800c80200007a
:020000040000fa
:0400bc00c802000076
:020000040000fa
:0400c000c802000072
:020000040000fa
:0400c400c80200006e
:020000040000fa
:0400c800c80200006a
:020000040000fa
:0400cc00c802000066
:020000040000fa
:0400d000c802000062
:020000040000fa
:0400d400c80200005e
:020000040000fa
:0400d800c80200005a
:020000040000fa
:0400dc00c802000056
:020000040000fa
:0400e000c802000052
:020000040000fa
:0400e400c80200004e
:020000040000fa
:0400e800c80200004a
:020000040000fa
:0400ec00c802000046
:020000040000fa
:0400f000c802000042
:020000040000fa
:0400f400c80200003e
:020000040000fa
:0400f800c80200003a
:020000040000fa
:0400fc00c802000036
:020000040000fa
:04010000c802000031
:020000040000fa
:04010400c80200002d
:020000040000fa
:04010800c802000029
:020000040000fa
:04010c00c802000025
:020000040000fa
:04011000c802000021
:020000040000fa
:04011400c80200001d
:020000040000fa
:04011800c802000019
:020000040000fa
:04011c00c802000015
:020000040000fa
:04012000c802000011
:020000040000fa
:04012400c80200000d
:020000040000fa
:04012800c802000009
:020000040000fa
:04012c00c802000005
:020000040000fa
:04013000c802000001
:020000040000fa
:04013400c8020000fd
:020000040000fa
:04013800c8020000f9
:020000040000fa
:04013c00c8020000f5
:020000040000fa
:04014000c8020000f1
:020000040000fa
:04014400c8020000ed
:020000040000fa
:04014800c8020000e9
:020000040000fa
:04014c00c8020000e5
:020000040000fa
:04015000c8020000e1
:020000040000fa
:04015400c8020000dd
:020000040000fa
:04015800c8020000d9
:020000040000fa
:04015c00c8020000d5
:020000040000fa
:04016000c8020000d1
:020000040000fa
:04016400c8020000cd
:020000040000fa
:04016800c8020000c9
:020000040000fa
:04016c00c8020000c5
:020000040000fa
:04017000c8020000c1
:020000040000fa
:04017400c8020000bd
:020000040000fa
:04017800c8020000b9
:020000040000fa
:04017c00c8020000b5
:020000040000fa
:04018000c8020000b1
:020000040000fa
:04020800c802000028
:020000040000fa
:04020c00c802000024
:020000040000fa
:04021000c802000020
:020000040000fa
:04021400c80200001c
:020000040000fa
:04021800c802000018
:020000040000fa
:04021c00c802000014
:020000040000fa
:04022000c802000010
:020000040000fa
:04022400c80200000c
:020000040000fa
:04022800c802000008
:020000040000fa
:04022c00c802000004
:020000040000fa
:04023000c802000000
:020000040000fa
:04023400c8020000fc
:020000040000fa
:04023800c8020000f8
:020000040000fa
:04023c00c8020000f4
:020000040000fa
:04024000c8020000f0
:020000040000fa
:04024400c8020000ec
:020000040000fa
:04024800c8020000e8
:020000040000fa
:04024c00c8020000e4
:020000040000fa
:04025000c8020000e0
:020000040000fa
:04025400c8020000dc
:020000040000fa
:04025800c8020000d8
:020000040000fa
:04025c00c8020000d4
:020000040000fa
:04026000c8020000d0
:020000040000fa
:04026400c8020000cc
:020000040000fa
:04026800c8020000c8
:020000040000fa
:04026c00c8020000c4
:020000040000fa
:04027000c8020000c0
:020000040000fa
:04027400c8020000bc
:020000040000fa
:04027800c8020000b8
:020000040000fa
:04027c00c8020000b4
:020000040000fa
:04028000c8020000b0
:020000040000fa
:04028400c8020000ac
:020000040000fa
:04028800c8020000a8
:020000040000fa
:04028c00c8020000a4
:020000040000fa
:04029000c8020000a0
:020000040000fa
:04029400c80200009c
:020000040000fa
:04029800c802000098
:020000040000fa
:04029c00c802000094
:020000040000fa
:0402a000c802000090
:020000040000fa
:0402a400c80200008c
:020000040000fa
:0402a800c802000088
:020000040000fa
:0402ac00c802000084
:020000040000fa
:0402b000c802000080
:020000040000fa
:0402b400c80200007c
:020000040000fa
:0402b800c802000078
:020000040000fa
:0402bc00c802000074
:020000040000fa
:0402c000c802000070
:020000040000fa
:0402c400c80200006c
:020000040000fa
:0402c800c802000068
:020000040000fa
:0402cc00c802000064
:020000040000fa
:0402d000c802000060
:020000040000fa
:0402d400c80200005c
:020000040000fa
:0402d800c802000058
:020000040000fa
:0402dc00c802000054
:020000040000fa
:0402e000c802000050
:020000040000fa
:0402e400c80200004c
:020000040000fa
:0402e800c802000048
:020000040000fa
:0402ec00c802000044
:020000040000fa
:0402f000c802000040
:020000040000fa
:0402f400c80200003c
:020000040000fa
:0402f800c802000038
:020000040000fa
:0402fc00c802000034
:020000040000fa
:04030000c80200002f
:020000040000fa
:04030400c80200002b
:020000040000fa
:04030800c802000027
:020000040000fa
:04030c00c802000023
:020000040000fa
:04031000c80200001f
:020000040000fa
:04031400c80200001b
:020000040000fa
:04031800c802000017
:020000040000fa
:04031c00c802000013
:020000040000fa
:04032000c80200000f
:020000040000fa
:04032400c80200000b
:020000040000fa
:04032800c802000007
:020000040000fa
:04032c00c802000003
:020000040000fa
:04033000c8020000ff
:020000040000fa
:04033400c8020000fb
:020000040000fa
:04033800c8020000f7
:020000040000fa
:04033c00c8020000f3
:020000040000fa
:04034000c8020000ef
:020000040000fa
:04034400c8020000eb
:020000040000fa
:04034800c8020000e7
:020000040000fa
:04034c00c8020000e3
:020000040000fa
:04035000c8020000df
:020000040000fa
:04035400c8020000db
:020000040000fa
:04035800c8020000d7
:020000040000fa
:04035c00c8020000d3
:020000040000fa
:04036000c8020000cf
:020000040000fa
:04036400c8020000cb
:020000040000fa
:04036800c8020000c7
:020000040000fa
:04036c00c8020000c3
:020000040000fa
:04037000c8020000bf
:020000040000fa
:04037400c8020000bb
:020000040000fa
:04037800c8020000b7
:020000040000fa
:04037c00c8020000b3
:020000040000fa
:04038000c8020000af
:020000040000fa
:100400000f8020000e7f22000e01880000000000f7
:10041000000020000000e000020032000001200087
:1004200020028800140007005b0007000000e000c5
:1004300003003a0000002000010020000200370005
:100440000000200001002000810f70000100320038
:1004500014000700000020000000e000020032004d
:100460000000020000000000e8030200000000009d
:100470000040da000000fe004440a90060002000b7
:100480000000e0000300320000002000a00188000e
:100490004440a800000006008a1f78008b1f7800e7
:1004a0000000060091018800800478000000eb0045
:1004b0001a003700e284440032a0b4009905ba0063
:1004c000e284440032a0b4009906ba00e2844400f9
:1004d00032a0b4000006eb00476fde00fd07b2005b
:1004e000636ce10003003a00ebff07000000eb0043
:1004f0000a003700606ce10004003a00005deb0088
:100500008b05e900fdff3e00040037006168e10053
:10051000010032000086eb000b00070019c7ba008b
:100520001905ba000e04e00003003a000a00e000da
:10053000e0ff3a0000000600fe07b2009e018800be
:100540008a047800f5ff3700395dba008b05e900b1
:100550000c003200295dba008b05e900080032006a
:100560000c00e00003003a00e284440032a0b40032
:10057000f5ff370019ddba008b05e900faff3a00f4
:100580008904e800e184440032a0b40000000600c1
:0c0590000040da000000fe000000050042
:020000040000fa
:0c059c0049560000414e00000000000025
:020000040000fa
:1005a8000000fa00ca22ef00c822ef00cb02a80020
:1005b80000f42100010020009b00070020c3b300c5
:1005c8003a00070080c2b30038000700c0c0b3007b
:1005d8003600070010c0b3003400070060c0b30045
:1005e800320007000080fa00000006000200fa004e
:1005f800004f78000e00e800014878001e80fb00dc
:100608004400de00004f78009e4078006fcf600005
:1006180051168000000f20000080600050168800ee
:100628001e80fb0051168000008070005016880064
:100638000e00e80010407800614060000080fb0078
:10064800610060004500dd00511680000150a100e6
:100658000100700050168800cae2a900ca82a800ea
:10066800ca82a9000080fa00000006000200fa0011
:10067800004f780000f42100010020006a00070004
:1006880011c0b3001e407800d8ff07001e40780054
:100698004400dd00004f780011c0b3001e40780010
:1006a800d2ff07000080fa00000006000200fa00ee
:1006b800004f780000f42100010020005a000700d4
:1006c8008040eb001e407800c8ff07001e407800fd
:1006d8004400dd00004f780000f4210001002000f4
:1006e800510007008040eb001e407800bfff070064
:1006f8000080fa00000006000400fa008e80e8007e
:10070800800878000040eb00004f780007003700b1
:100718001e80fb008e80e800910078000080400079
:10072800104078001e4fe800d0ff07001e80fb0035
:100738008e80e8009100780000804000104078002a
:100748000004e000f2ff3a000080fa000000060012
:100758000200fa00004f78000e00e8000148780017
:100768000e00e80010407800e14f500011003e00f4
:100778001e407800ef4f500010003e000e00e800c9
:1007880010407800e14f500003003a0000ccb3005d
:100798001e407000020037001e4078000074a00060
:1007a800c2ff070000f42100010020001e0007001e
:1007b80003003700000000000100370000000000bf
:1007c8000080fa00000006000000fa00c422ef00d2
:1007d800cc22ef007001200000168800c822ef002c
:1007e8006820ef006a20ef00c622ef00ce22ef005b
:1007f8000080eb006019880069ff070010c0b30093
:10080800aaff07008040eb000040eb00d0ff070084
:10081800e02c2800b8ff070000b02100710b200071
:0808280001000700faff370090
:020000040000fa
:10083000f03fb1000180b10006003500ee03090071
:1008400000000000403fb1000180b100fbff3d000f
:100850001000b000203fb000020035000080090009
:0808600000000000000006008a
:020000040000fa
:020000040001f9
:0457f000ffff0000b7
:020000040000fa
:020000040001f9
:0457f400fffc0000b6
:020000040000fa
:020000040001f9
:0457f800bf7f00006f
:020000040000fa
:020000040001f9
:0457fc007f3e0000ec
:00000001FF
